:100000000C942E010C9456010C9456010C9456013C
:100010000C9456010C9456010C9456010C94560104
:100020000C9456010C9456010C9456010C94B81380
:100030000C9456010C9456010C9456010C945601E4
:100040000C9438140C9456010C94A1170C94D317EB
:100050000C9456010C9456010C9456010C945601C4
:100060000C941B0B0C9456014365727061646C6FA9
:1000700020646F626568004365727061646C6F2014
:100080007679706E75746965004365727061646C31
:100090006F207A61706E75746965004B6F746F6C58
:1000A000206B7261746B7920636173207A61706E6A
:1000B00075746961004B6F746F6C207679706E7522
:1000C000746965004B6F746F6C206B7261746B792F
:1000D00020636173206D65647A692064766F6D6159
:1000E000207A61706E757469616D69004B6F746F11
:1000F0006C207A61706E757469650074783433337E
:100100004D487A28293B00205F5F202000202D2DBC
:100110002020002E0020002000200020002E0020A3
:10012000004552524F523A20435243206469646E54
:100130002774206D617463680A004465766963659D
:10014000206973206E6F74207265636F676E697AC1
:10015000656400435243206973206E6F742076619A
:100160006C6964210054656D704E6173743D2000AC
:100170002000204153433A2000206275666C656E72
:100180003D0052656365697665643433334D487A62
:100190003A2000626F6A6C657200697A626132208F
:1001A0000073706961742E00697A62613120006B9E
:1001B0007572656E2E0063686F64626100207679E7
:1001C0007020005F0063005F006B006C6F6F702831
:1001D000293B007361756E6100766F6E6B75006E02
:1001E0006173742E007374617274696E67202E2EB1
:1001F0002E00736574757028293B0000000008000C
:1002000002010000030407000000000000000001DC
:10021000020408102040800102040810200102049A
:10022000081020040404040404040402020202026C
:100230000203030303030300000000230026002938
:100240000000000000250028002B00000000002412
:100250000027002A0000DF08790A031811241FBEB6
:10026000CFEFD8E0DEBFCDBF12E0A0E0B1E0E0E626
:10027000F9E302C005900D92A23FB107D9F725E03E
:10028000A2EFB2E001C01D92A630B207E1F712E082
:10029000CCE5D2E004C02297FE010E94121CC635B4
:1002A000D107C9F70E94DA190C94AE1C0C94000017
:1002B00040E063E183E593E00E94D20C80914A0321
:1002C000813019F469EC71E002C067EC71E083E5FC
:1002D00093E00E94841840E062E183E593E00E948D
:1002E000D20C80914903813019F465EC71E002C0B1
:1002F00063EC71E083E593E00C94841861E084E0A2
:100300000E94C41561E085E00E94C41510924A0362
:100310006FEF70E084E00E943C15109249036FEF8C
:1003200070E085E00E943C1510924B0310924C0344
:1003300010924D0310924E03089580934A03811149
:1003400003C06FEF70E002C060E070E084E00C94E6
:100350003C1580934903811103C06FEF70E002C028
:1003600060E070E085E00C943C1560E08AE00E945B
:10037000C41560E08BE00E94C41560E08CE00E9430
:10038000C4158AE00E9433168093F3020895CF9338
:10039000DF938AE00E943316EC018BE00E94331653
:1003A0002091F30230E0C217D30731F08C179D077C
:1003B00031F08FEF9FEF05C080E090E002C081E058
:1003C00090E0C093F302DF91CF910895CF93DF9334
:1003D000A8958CE00E943316C1E0D0E0C81BD90B71
:1003E0008091F20290E0C817D90739F04AE050E056
:1003F000BE0189E694E00E946F19C093F202CE011B
:10040000DF91CF9108958AE090E00E94901C84369D
:1004100020F08B3F28F490E005C084E690E002C015
:100420008AEF90E0909305038093040365E671E002
:1004300089E694E00E94841860910403709105039A
:100440004AE050E089E694E00C946F190F931F93F3
:10045000CF93DF931F92CDB7DEB78C0169830E94E3
:10046000901C6981861741F0C8010F90DF91CF91F0
:100470001F910F910C94981C0F90DF91CF911F91B9
:100480000F910895609104038AE090E00C94260295
:10049000CF92DF92EF92FF920F931F93CF93DF9350
:1004A000CDB7DEB764970FB6F894DEBF0FBECDBFF1
:1004B000BE01635F7F4F86E393E00E946610811167
:1004C00005C086E393E00E9422100EC067E0CE01D3
:1004D0000D960E9401119C89891759F063E571E01E
:1004E00089E694E00E94B21860E070E08AE794EC3C
:1004F00065C08D85803129F0883219F06AE371E09A
:1005000043C086E393E00E94050FBE01635F7F4F07
:1005100086E393E00E94F50F40E064E486E393E015
:100520000E94990F86E393E00E94050FBE01635F6E
:100530007F4F86E393E00E94F50F40E06EEB86E389
:1005400093E00E94990F8E010F5F1F4F7E018AE09A
:10055000E80EF11C680186E393E00E94D90FF801D0
:1005600081938F01EE15FF05B1F786E393E00E94BA
:1005700022101A810981F98468E0C6010E940111E4
:10058000F81639F061E271E089E694E00E9484187F
:10059000ABCF602F70E0712B882777FD8095982F67
:1005A0000E94891A20E030E040E85DE30E94391B98
:1005B00020E030E040E251E40E94391B64960FB61F
:1005C000F894DEBF0FBECDBFDF91CF911F910F9189
:1005D000FF90EF90DF90CF900895CF93DF93EC01E1
:1005E0008436910544F4009731F06FE171E083E5C2
:1005F00093E00E948418CE016AE070E00E949C1B88
:10060000EC014AE050E083E593E00E9467196DE158
:1006100071E083E593E00E9484184AE050E0BE0157
:1006200083E593E00E946719E0915303F09154032E
:100630000190F081E02D6FED83E593E0DF91CF91A4
:100640000994CF93DF936AE070E00E949C1BEB015A
:10065000CB010996439730F46BE171E083E593E0B9
:100660000E948418D7FD06C069E171E083E593E03C
:100670000E9484184AE050E0BE0183E593E00E94A6
:100680006719E0915303F09154030190F081E02D3C
:100690006FED83E593E0099567E171E083E593E011
:1006A000DF91CF910C948418CF93DF9341E060E009
:1006B00083E593E00E94D20C80910403909105039E
:1006C0008436910534F465E171E083E593E00E949E
:1006D00084188091040390910503CAE0D0E0BE0124
:1006E0000E949C1B4AE050E083E593E00E9467195A
:1006F00063E171E083E593E00E9484188091040334
:1007000090910503BE010E949C1B4AE050E0BC0191
:1007100083E593E00E946719E0915303F09154033D
:100720000190F081E02D6FED83E593E0DF91CF91B3
:1007300009940E94C701009739F120910403309178
:1007400005038130910519F42150310904C0019647
:1007500031F42F5F3F4F30930503209304038091C2
:100760000403909105038436910534F08B3F910585
:100770002CF08AEF90E002C084E690E090930503AD
:10078000809304030C94540308956DE071E083E5B5
:1007900093E00C94841867E071E083E593E00C9497
:1007A00084180F931F9343E060E083E593E00E9479
:1007B000D20C0E94821400911A0110911B01209109
:1007C0001C0130911D01601B710B820B930B603E6D
:1007D00073498440910580F4809100039091010356
:1007E000019719F40E94CB0309C0809102039091F4
:1007F00003030E94210302C00E94C50343E067E097
:1008000083E593E00E94D20C0E94821400911601AD
:10081000109117012091180130911901601B710B83
:10082000820B930B603E734984409105D8F480910C
:10083000FC029091FD02019719F40E94CB0314C0B1
:100840008091FE029091FF0284342EEF920739F4DA
:100850006DEB71E083E593E00E94841805C00E946F
:10086000210302C00E94C5030E94821420ED37E0DC
:1008700040E050E00E94B01BCA01B90123E030E023
:1008800040E050E00E94D21B40E0613071058105DC
:10089000910509F452C0623071058105910509F492
:1008A000B3C067E083E593E00E94D20C66EB71E091
:1008B00083E593E00E94841841E067E083E593E0DC
:1008C0000E94D20C80910603909107030E94ED02D2
:1008D00042E06EE083E593E00E94D20C6FEA71E0A3
:1008E00083E593E00E94841843E06EE083E593E0A3
:1008F0000E94D20C0E9482140091120110911301E7
:100900002091140130911501601B710B820B930B28
:10091000603E73498440910508F05EC08091F40206
:100920009091F502019721F41F910F910C94CB0344
:100930008091FA029091FB02CBC067E083E593E0DF
:100940000E94D20C68EA71E083E593E00E9484186B
:100950000E94821400912201109123012091240110
:1009600030912501601B710B820B930B41E0603EBF
:10097000734984409105A0F567E083E593E00E9408
:10098000D20C80910E0390910F030E94ED0242E081
:100990006EE083E593E00E94D20C61EA71E083E5AA
:1009A00093E00E94841843E06EE083E593E00E94A8
:1009B000D20C0E9482140091120110911301209117
:1009C000140130911501601B710B820B930B603E7B
:1009D00073498440910560F01F910F910C94C503F9
:1009E00067E083E593E00E94D20C0E94C503CFCF5D
:1009F0008091F4029091F502019709F495CF8091CE
:100A0000F8029091F90264C067E083E593E00E94E8
:100A1000D20C6AE971E083E593E00E94841841E01A
:100A200067E083E593E00E94D20C0E94821400915B
:100A30001E0110911F012091200130912101601BA6
:100A4000710B820B930B603E73498440910538F41F
:100A500080910A0390910B030E94ED0208C041E0CF
:100A600067E083E593E00E94D20C0E94C50342E058
:100A70006EE083E593E00E94D20C63E971E083E5C8
:100A800093E00E94841843E06EE083E593E00E94C7
:100A9000D20C0E9482140091120110911301209136
:100AA000140130911501601B710B820B930B603E9A
:100AB00073498440910508F08FCF8091F4029091A2
:100AC000F502019709F430CF8091F6029091F70278
:100AD0001F910F910C9421030F931F93CF93DF93DA
:100AE000CDB7DEB72C970FB6F894DEBF0FBECDBFE3
:100AF0002CE0E3E7F1E0DE01119601900D922A95DA
:100B0000E1F724E5298328E42A8322E42B8320E3E8
:100B1000280F2C8381309105A9F480910E039091C8
:100B20000F036AE070E00E949C1B6D838E830E941D
:100B3000821400912201109123012091240130910F
:100B4000250117C08230910511F580910A0390911B
:100B50000B036AE070E00E949C1B6D838E830E94F1
:100B6000821400911E0110911F01209120013091EB
:100B70002101601B710B820B930B613E7349844012
:100B8000910518F081E08B871EC01B861CC003975F
:100B9000D1F480910603909107032AE030E0B90177
:100BA0000E949C1B6D838E838091040390910503AA
:100BB000B9010E949C1B6F83888780914A038987B3
:100BC000809149038A876CE0CE0101960E94F6125B
:100BD0000E94F1122C960FB6F894DEBF0FBECDBF67
:100BE000DF91CF911F910F910895EF92FF920F9394
:100BF0001F93CF93DF93D0910E03C0910F030E94F8
:100C0000821400912201109123012091240130913E
:100C10002501601B710B820B930B613E734984406D
:100C2000910520F0D0910603C0910703E0900A03DC
:100C3000F0900B030E94821400911E0110911F017D
:100C40002091200130912101601B710B820B930BCD
:100C50002091060330910703613E7349844091055A
:100C600008F079018D2F9C2F281739070CF4C90142
:100C7000E816F9060CF4C70120910403309105032E
:100C800040914A0382179307E4F4411149C00E943E
:100C9000821400914B0310914C0320914D0330912D
:100CA0004E03601B710B820B930B613E72438942B2
:100CB000910508F06EC0012B022B032B09F469C0CB
:100CC00078C0413069F50E94821400914F03109161
:100CD00050032091510330915203601B710B820B22
:100CE000930B613A7B4B8D409105A0F010924A0323
:100CF0006FEF70E084E00E943C150E9482146093C4
:100D00004B0370934C0380934D0390934E0365EB1C
:100D100070E002C06BE970E089E694E00E94B218CE
:100D200090914A0380914903913041F4811144C06C
:100D300081E00E94A90169E870E021C08130E1F5FD
:100D40000E94821400914B0310914C0320914D039B
:100D500030914E03601B710B820B930B613A784606
:100D60008640910550F0109249036FEF70E085E0E6
:100D70000E943C1567E770E002C068E670E089E613
:100D800094E0DF91CF911F910F91FF90EF900C9421
:100D9000B21881E00E949D010E94821460934F036B
:100DA0007093500380935103909352036CEE70E064
:100DB000B3CF64EC70E0B0CFDF91CF911F910F9172
:100DC000FF90EF900895803891050CF09A95603867
:100DD00071050CF07A954AE0489F9001499F300DCB
:100DE0001124C901860F971F0895CF93C82F61E082
:100DF0008DE00E94C41561E0C11101C060E0619501
:100E000070E08DE0CF910C943C15CF93DF938CE094
:100E100080932A016AE271E088E193E00E949713CF
:100E2000882309F41CC18FEF0E94F50662E871E087
:100E300089E694E00E94B21869E771E089E694E0DF
:100E40000E9484184AE050E060912A0189E694E00B
:100E50000E94941962E771E089E694E00E94841888
:100E6000C8E1D3E080912A0190E09E0128513340EF
:100E70002817390764F4699189E694E00E94A7185D
:100E800060E771E089E694E00E948418EBCF89E680
:100E900094E00E94AE1880911803843509F050C088
:100EA00080911903883409F04BC080911A0383356F
:100EB00009F046C080912203811142C080911B033A
:100EC0008133E9F40E94821460932201709323011C
:100ED000809324019093250160911D0370E080911F
:100EE0001C0390E00E94E30690930F0380930E038F
:100EF0008091230390E090930D0380930C038091E5
:100F00001B038233E9F40E94821460931E017093E4
:100F10001F01809320019093210160911D0370E0D7
:100F200080911C0390E00E94E30690930B03809352
:100F30000A038091230390E09093090380930803B0
:100F400080911803843509F085C080911903883495
:100F500009F080C080911A03853409F07BC080912C
:100F60001B038133E9F40E94821460931A01709389
:100F70001B0180931C0190931D0160911D0370E083
:100F800080911C0390E00E94E306909303038093FA
:100F900002038091220390E0909301038093000369
:100FA00080911B038233E9F40E948214609316013E
:100FB00070931701809318019093190160911D039C
:100FC00070E080911C0390E00E94E3069093FF0282
:100FD0008093FE028091220390E09093FD02809323
:100FE000FC0280911B038333A9F50E948214609355
:100FF0001201709313018093140190931501609175
:101000001D0370E080911C0390E00E94E306909322
:10101000FB028093FA0260911F0370E080911E032F
:1010200090E00E94E3069093F9028093F8026091A9
:10103000210370E08091200390E00E94E3069093EA
:10104000F7028093F6028091220390E09093F502DC
:101050008093F40280E0DF91CF910C94F506DF914C
:10106000CF9108958FEF0E94F5066BEF70E089E64F
:1010700094E00E94B21881E090E00E946C0582E04A
:1010800090E00E946C0583E090E00E946C0580E097
:101090000C94F506CF92DF92EF92FF92A8950E94F2
:1010A00099030E948214C0902601D0902701E090FD
:1010B0002801F09029016C197D098E099F0961367C
:1010C0007A4E81059105F0F00E948214609326010A
:1010D0007093270180932801909329010E94480270
:1010E0006B017C0120E030E04AE754EC0E94EA19F1
:1010F000882341F0C701B6010E94561A7093070376
:10110000609306030E948214C0901003D0901103D4
:10111000E0901203F09013036C197D098E099F096A
:10112000693E734081059105A0F00E94821460938E
:1011300010037093110380931203909313030E9482
:10114000F5050E9454030E94D1030E9458010E9499
:1011500042020E9405070E948214C0901403D0909E
:101160001503E0901603F09017036C197D098E09A2
:101170009F096133754781059105E0F00E94821453
:101180006B017C0168EE73E080E090E00E94B3198F
:10119000C61AD70AE80AF90AC0921403D0921503B6
:1011A000E0921603F0921703FF90EF90DF90CF903C
:1011B0000C943208FF90EF90DF90CF9008958F92BB
:1011C000AF92CF92EF920F931F921F9283E08F9373
:1011D00087E0882E96E0A92E25E0C22E34E0E32E8B
:1011E00000E021E042E067E283E593E00E945C0ECC
:1011F0000F900F900F9066E086E393E00F91EF90D1
:10120000CF90AF908F900C942F10CF92DF92EF92EF
:10121000FF92CF93DF9329E288E190E00FB6F89434
:10122000A895809360000FBE2093600026E040E008
:1012300052EC61E070E089E694E00E943F1762EFB3
:1012400071E089E694E00E94B21820E044E064E195
:1012500083E593E00E94EA0E83E593E00E94CB0CC5
:1012600083E593E00E94BB0C4AE051E061E083E536
:1012700093E00E94920D40E060E083E593E00E94DD
:10128000D20C65EE71E083E593E00E9484180E9421
:1012900003020E94B50182E00E944F1183E00E9488
:1012A0004C1180ED97E00E94F5110E94E71280E05A
:1012B0000E941F15BC01882777FD8095982F0E94FA
:1012C000AB19CAE0D0E0A8950E9448026B017C01EE
:1012D00020E030E04AE754EC0E94EA19882341F00C
:1012E000C701B6010E94561A709307036093060364
:1012F00064EF71E080E090E00E94B114219719F74B
:101300000E94E6010E947E0183E593E00E94CB0CDF
:1013100040E060E083E593E00E94D20C6FED71E065
:1013200083E593E00E94841842E060E083E593E067
:101330000E94D20C69ED71E083E593E00E9484186D
:1013400042E067E083E593E00E94D20C63ED71E038
:1013500083E593E00E9484186BEC71E089E694E0E9
:10136000DF91CF91FF90EF90DF90CF900C94B21867
:1013700080919C0390E020919D03821B9109089528
:1013800020919D0380919C03281750F4E22FF0E0F8
:10139000E256FC4F808190E02F5F20939D030895DB
:1013A0008FEF9FEF0895E0919D0380919C03E817D4
:1013B00030F4F0E0E256FC4F808190E008958FEF2A
:1013C0009FEF08950895CF92DF92EF92FF920F93CF
:1013D0001F93CF93DF937C01CB018A012091780387
:1013E000222389F0EB016B01C40ED51ECC15DD055F
:1013F00069F06991D701ED91FC910190F081E02DA8
:10140000C7010995F3CF642F0E94F20AC801DF914A
:10141000CF911F910F91FF90EF90DF90CF900895A3
:10142000CF93DF931F92CDB7DEB769832091780306
:101430002223D1F020917903203240F021E030E0E6
:10144000FC013383228380E090E015C080917A0311
:10145000E82FF0E0E558FC4F998190838F5F8093EF
:101460007A038093790305C061E0CE0101960E9462
:10147000F20A81E090E00F90DF91CF910895FC0196
:101480001382128248EE53E060E070E0448355839B
:101490006683778381E991E0918380830895109238
:1014A0009D0310929C0310927A03109279030C947E
:1014B0007D0A81E08093780360939B0310927A0306
:1014C0001092790308950F93062F21E0409179033C
:1014D0006BE773E080919B030E949B0A10927A0352
:1014E00010927903109278030F91089561E00C94A3
:1014F000630A8CE693E00C943F0A10922B0481E07F
:10150000809329041092280461E082E10E94FD1575
:1015100061E083E10E94FD15E9EBF0E080818E7FC0
:10152000808380818D7F808388E48093B80085E408
:101530008093BC0008950F93413208F04AC0909107
:101540002B049111FCCF92E090932B04009329047B
:101550009FEF9093BE031092030440930204FB019B
:1015600064E074E0DB019A2F961B941718F49191B4
:101570009D93F9CF10922A0490912A04880F892B09
:1015800080932A0480912804813061F41092280409
:1015900080912A048093BB008091BC0083FDF8CF2A
:1015A00085EC01C085EE8093BC00222321F0809160
:1015B0002B048230E1F38091BE038F3F61F0809174
:1015C000BE03803251F08091BE03803341F483E04A
:1015D00007C081E005C080E003C082E001C084E074
:1015E0000F910895613298F420912B04243089F4EE
:1015F0006093E003FC0182EE93E0DC012A2F281BBC
:10160000261718F421912D93F9CF80E0089581E0F9
:10161000089582E0089585ED8093BC008091BC0020
:1016200084FDFCCF10922B04089585EC8093BC00C0
:1016300010922B0408951F920F920FB60F9211244F
:101640002F933F934F935F936F937F938F939F93CA
:10165000AF93BF93EF93FF938091B900887F80365B
:1016600009F49EC078F5883209F45DC090F48031A9
:1016700009F456C038F4882309F4F5C0883009F419
:101680004FC0F5C0883109F44EC0803209F45FC004
:10169000EEC0803409F46AC058F4803309F457C0AE
:1016A000883309F0E4C08093BE030E94150BDFC0AD
:1016B000803509F44FC0883509F45DC0883409F0DD
:1016C000D6C0D3C0883909F4C4C0A8F4883709F457
:1016D00067C038F4883609F463C0803709F460C005
:1016E000C6C0883809F4B5C0803909F45FC08038B5
:1016F00009F0BDC05BC0803B09F483C038F4803A78
:1017000009F466C0883A09F47CC0B1C0803C09F491
:10171000A4C0883C09F4A1C0883B09F487C0A7C0D5
:1017200080912A0410C090910304809102049817BC
:1017300070F5E091030481E08E0F80930304F0E0E4
:10174000EC5FFB4F80818093BB0085EC83C080936E
:10175000BE038BC0E091030481E08E0F80930304ED
:101760008091BB00F0E0EC5FFB4F8083909103041D
:10177000809102046BC0E091030481E08E0F80939E
:1017800003048091BB00F0E0EC5FFB4F808380910D
:10179000290481116AC081E08093280484EA5EC034
:1017A00083E080932B041092BF03CFCF8091BF03BF
:1017B000803208F04EC0E091BF0381E08E0F80932D
:1017C000BF038091BB00F0E0E054FC4F8083BDCFAD
:1017D0000E94150B8091BF03803230F4E091BF036B
:1017E000F0E0E054FC4F10826091BF0370E0E091A4
:1017F0002404F091250480EC93E009951092BF0336
:1018000036C084E080932B041092E1031092E00331
:10181000E0912604F091270409958091E00381115D
:1018200005C081E08093E0031092E203E091E103C0
:1018300081E08E0F8093E103F0E0EE51FC4F808158
:101840008093BB009091E1038091E003981708F426
:101850007CCF85E88093BC000AC085EC8093BC00F7
:1018600010922B0404C01092BE030E940B0BFF9138
:10187000EF91BF91AF919F918F917F916F915F9108
:101880004F913F912F910F900FBE0F901F90189581
:10189000FC0112828FEF8183108213820895FC0174
:1018A0008381882331F0611103C08FEF8183089514
:1018B000118208958CE693E00E94590A8CE693E029
:1018C0000E94760A91E0811190E0892F0895CF93CC
:1018D000DF93EC016A838CE693E00E944F0A6A81F1
:1018E000CE010E945A0C8B83882329F08CE693E06A
:1018F0000E94C00988838B8190E0DF91CF91089589
:10190000CF93DF93EC018B818823A9F089818095A7
:10191000862388836A818CE693E00E94590A688155
:101920008CE693E00E94100A8CE693E00E94760A0F
:10193000282F30E002C020E030E081E090E0232B4F
:1019400011F080E090E0DF91CF910895089508951F
:10195000DC01ED91FC910284F385E02D41E00995D5
:1019600081E090E00895FC011382128221EA31E0C7
:10197000318320830895DC01ED91FC910084F18591
:10198000E02D6FEF0994DC01ED91FC910284F38569
:10199000E02D40E0099461E00E94C30C80ED97E0E7
:1019A0000C94D914CF93DF93CDB7DEB728970FB639
:1019B000F894DEBF0FBECDBF1D8220E42E8334E13C
:1019C0003F8334E5388719822A8320E12B8320E581
:1019D0002C83FC012781421710F04FEF420FFC01CE
:1019E000308550E0FE01E40FF51F303121F4243042
:1019F00011F4218101C02581260F2068622F2896CD
:101A00000FB6F894DEBF0FBECDBFDF91CF910C941F
:101A1000C30CFC016581262F246025836C600C9427
:101A2000C30CCF93DF93EC01423018F08C818860B7
:101A30008C834F836887222329F0413019F48C81ED
:101A400084608C8364E670E080E090E00E94B114D2
:101A50006C8164FD31C0E881F9810284F385E02D59
:101A600042E063E0CE01099584E991E10E94D91436
:101A7000E881F9810284F385E02D42E063E0CE0144
:101A8000099586E990E00E94D914E881F9810284E1
:101A9000F385E02D42E063E0CE01099586E990E010
:101AA0000E94D914E881F9810284F385E02D42E097
:101AB00062E0CE01099516C06062CE010E94C30C9F
:101AC00084E991E10E94D9146C816062CE010E9488
:101AD000C30C86E990E00E94D9146C816062CE014B
:101AE0000E94C30C86E990E00E94D9146C81606268
:101AF000CE010E94C30C8CE390E00E94D91484E0D4
:101B00008D83CE010E94090DCE010E94CB0C82E094
:101B10008E8366E0CE010E94C30CCE01DF91CF918F
:101B20000C94BB0CCF92DF92FF920F931F93CF9335
:101B3000DF9300D0CDB7DEB78C01677088E0689F77
:101B4000B00111246064C80149835A830E94C30C08
:101B50008EE190E00E94D9144981C42E5A81D52E7D
:101B6000F12CD6016D916D01D801ED91FC910190A0
:101B7000F081E02DC801099588E290E00E94D91417
:101B8000F394B8E0FB12EDCF0F900F90DF91CF915F
:101B90001F910F91FF90DF90CF90089521E001C039
:101BA000220F6A95EAF7DC011C962C931C971A9673
:101BB0005C934E931997ED91FC910084F185E02D93
:101BC00060E00994FC012485222399F081859285A7
:101BD000009719F4611105C006C0019721F4611145
:101BE00002C0258701C015866585CF010E960C942D
:101BF000800C08950F931F93CF93DF93EC018C011A
:101C0000025F1F4F6B85C8010E94670C019761F44A
:101C100061E0C8010E944F0C1C8260E0C8010E9474
:101C2000800C81E090E002C080E090E0DF91CF91F5
:101C30001F910F9108958F92AF92CF92EF920F93D1
:101C4000CF93DF93CDB7DEB7FC016387148615868B
:101C50001286118681E0982F01C0990F4A95EAF704
:101C6000928B982F01C0990F2A95EAF7938B982FA2
:101C700001C0990F0A95EAF7948B982F01C0990F2C
:101C8000EA94EAF7958B982F01C0990FCA94EAF766
:101C9000968B982F01C0990FAA94EAF7978B01C0F1
:101CA000880F8A94EAF7808FDF91CF910F91EF90A0
:101CB000CF90AF908F9008954F925F926F927F92E6
:101CC0008F92AF92CF92EF920F931F93CF93DF93A8
:101CD00000D01F92CDB7DEB73C011A894B885C88D3
:101CE0002B834A8369830E94B30C81EB91E0F3015B
:101CF00091838083C3010E960E94480C2B814A81F8
:101D00006981C3010E941B0EA201612FC3010F90C4
:101D10000F900F90DF91CF911F910F91EF90CF9087
:101D2000AF908F907F906F905F904F900C94CE0DFE
:101D3000FF920F931F93CF93DF93EC01F62E8C014C
:101D4000025F1F4F6A896F29C8010E94800C6A894F
:101D500060956F21C801DF91CF911F910F91FF9086
:101D60000C94800C20E030E050E060FF05C0FC01E6
:101D7000E20FF31F7589572B66952F5F3F4F243075
:101D8000310599F7413011F4FC014489FC01658566
:101D9000652B642B0C94980E0F931F93CF93DF93B6
:101DA000EC01142F062F0F70423011F440E00AC0EE
:101DB00070E084E0759567958A95E1F7CE010E9401
:101DC000B20E412F602FCE01DF91CF911F910F9165
:101DD0000C94B20E0F931F93CF93DF9300D01F92FA
:101DE000CDB7DEB78C012B834A8369830E94FA0D3D
:101DF0002B814A816981C8010F900F900F90DF916C
:101E0000CF911F910F910C94110D1F93CF93DF93DE
:101E1000EC0160E08A850E94C4151EE7115041F173
:101E200082E090E00E94D9148A850E943316892BA3
:101E3000A9F360E08A850E94FD1561E08A850E9411
:101E4000C41584EF91E00E94D91460E08A850E9455
:101E5000C41581E490E00E94D9148A850E9433164B
:101E600011E0892B09F010E08AEE91E00E94D9146C
:101E7000812FDF91CF911F9108950F931F93CF93DF
:101E8000DF93EC01E989FA8980819C85892B808325
:101E9000ED85FE8590818C85809589238083062F32
:101EA000017010E0F801E154FE4F808190E00E9443
:101EB000D914ED85FE8580819C85892B8083F8016E
:101EC000E354FE4F808190E0DF91CF911F910F91FD
:101ED0000C94D914CF93DF93EC01E989FA898081BE
:101EE0009C85892B8083ED85FE8590818C858095EE
:101EF0008923808381E090E00E94D914E989FA89DE
:101F000090818C8580958923808385E090E00E9474
:101F1000D914EF85F88990818C859823C1E009F464
:101F2000C0E082E390E00E94D9148C2FDF91CF9122
:101F30000895CF92DF92EF92FF920F931F93CF936A
:101F4000DF931F92CDB7DEB76C01E62E08E010E0FC
:101F5000FF24F39461E09F2D9E2109F460E0C60107
:101F600049830E943D0FFF0C015011094981011561
:101F7000110581F7411113C060E0F60182850E94CE
:101F8000C41560E0F60182850F90DF91CF911F911B
:101F90000F91FF90EF90DF90CF900C94FD150F9074
:101FA000DF91CF911F910F91FF90EF90DF90CF9035
:101FB0000895EF92FF920F931F93CF93DF938C01BD
:101FC000C8E0D0E0F12CEE24E394C8010E946A0F2F
:101FD0008111FE28EE0C2197C1F78F2DDF91CF9153
:101FE0001F910F91FF90EF900895CF92DF92EF92A3
:101FF000FF920F931F93CF93DF931F92CDB7DEB75E
:102000007C01162F40E065E579830E94990FC12E6F
:102010007981D72E00E010E0F60161916F0140E078
:10202000C7010E94990F0F5F1F4F08301105A1F7DC
:102030000F90DF91CF911F910F91FF90EF90DF9064
:10204000CF900895FC018FEF80871186178216824A
:102050001582148213821282118210820895DC018B
:102060001A966C931A9770E0FB01ED5DFD4FE491B9
:102070001B96EC931B97FB01E15FFD4F64911C964F
:102080006C931C971B968C911B9790E0880F991F5F
:10209000FC01EF5BFD4F259134911E963C932E93EE
:1020A0001D97FC01E95CFD4F2591349150963C93BE
:1020B0002E931F97855B9D4FFC01859194915296BD
:1020C0009C938E935197CD010C9422108F929F92E6
:1020D000AF92BF92CF92DF92EF92FF920F931F9336
:1020E000CF93DF931F92CDB7DEB74C016B01DC01BC
:1020F00019968C91882311F080E075C0C4010E946C
:10210000050F8823C9F340E060EFC4010E94990FD6
:1021100000E010E0AA24A394BB24BA94EE24E39434
:10212000F12CC4010E946A0F682FC40169830E94C8
:102130006A0F702F769576957695202F2770F70188
:1021400002C0EE0FFF1F2A95E2F79F016981662307
:1021500019F0882329F1D0CFE72FF0E0811127C0B3
:10216000D40118964C911897552747FD50950417A0
:10217000150719F41896BC9209C0D4010417150765
:102180003CF4AE0FBF1F8C91822321F091E004C07C
:1021900018960C9390E0A12CB02E992341F061E0A9
:1021A000F401E70FF11D8081822B808306C0E80DCA
:1021B000F91D2095808128232083C4010E943D0FB2
:1021C0000F5F1F4F0034110509F0ABCFAA2019F0A3
:1021D00081E0F4018187D401F60188E09D9191931B
:1021E0008150E1F781E00F90DF91CF911F910F9126
:1021F000FF90EF90DF90CF90BF90AF909F908F9027
:102200000895282FFC0180E09E2F921B961738F42A
:10221000A191A827B0E0AF53BE4F8C91F5CF0895A0
:10222000682780E1689F90011124622770E0362FB3
:102230002227492F50E0242B352BCB01F4E0959534
:102240008795FA95E1F728273927CB01A3E0880F76
:10225000991FAA95E1F78227932708951F93CF939B
:10226000DF93162FEC018FEF9FEF115020F0699153
:102270000E941011FACFDF91CF911F910895E1ECE8
:10228000F2E090E02191821729F09F5F9031D1F721
:1022900080E00895892F089580932B0108958093FD
:1022A0002C0108951F93CF93DF93909157049923A6
:1022B00029F0809154048F5F809354042091560438
:1022C00080915504921759F0803510F42BE001C02D
:1022D0002DE1820F809355049093560403C08C5EC9
:1022E0008093550420915504203A08F47AC08091D7
:1022F0004F04909150049695879590935004809345
:102300004F0430915404353028F098609093500475
:1023100080934F04205A20935504109254048091C6
:102320005304882309F44DC080914E048F5F80933D
:102330004E048C3008F455C0C0914F04D091500425
:102340008C2F8F730E943F11182FCE01C6E09695F7
:102350008795CA95E1F70E943F1190E1199F90017E
:102360001124822B90912E0491110EC080932F0482
:102370009CEF980F9B3140F01092530480912D04F4
:102380008F5F80932D042DC0E0912E0491E09E0F6D
:1023900090932E04F0E0E05DFB4F808390912E043B
:1023A00080912F04981750F01092530480912C04C0
:1023B0008F5F80932C0481E08093520410924E042E
:1023C00010C080914F049091500488339B4049F491
:1023D00081E08093530410924E0410922E041092C8
:1023E0005204DF91CF911F9108954F925F926F92A7
:1023F0007F92BF92CF92DF92EF92FF920F931F9343
:10240000CF93DF93CDB7DEB72E970FB6F894DEBF2C
:102410000FBECDBFBC018EE0EFE7F1E0DE0111960B
:1024200001900D928A95E1F76115710509F49AC042
:1024300080E090E00E94871A9B01AC0160E070E0B0
:1024400080E89FE30E94EE1920E030E040E05EE388
:102450000E94391B6B017C018E010D5F1F4FBB2455
:10246000B394F801619171918F0180E090E00E9436
:10247000871A9B01AC0160E074E284E79BE40E9450
:10248000EE199B01AC0160E070E080E89FE30E94E0
:10249000EE199B01AC01C701B6010E94EE190E9422
:1024A000561A2B013C01F2E04F1A510861087108DD
:1024B0002DEF42162FEF52066104710428F0B394F9
:1024C000E7E0BE12CECF05C0F6E0BF1609F44AC061
:1024D0000CC0623071058105910508F443C0611597
:1024E000710521E082079105E8F5BB20D9F1109232
:1024F000800028E020938100209181002B292093E7
:102500008100709389006093880080916F008260E1
:1025100080936F0061E080912B010E94C41560E000
:1025200080912C010E94C41561E080912D010E94D0
:10253000C4156091580480912D012E960FB6F89421
:10254000DEBF0FBECDBFDF91CF911F910F91FF90E6
:10255000EF90DF90CF90BF907F906F905F904F9003
:102560000C94FD152E960FB6F894DEBF0FBECDBFAE
:10257000DF91CF911F910F91FF90EF90DF90CF905F
:10258000BF907F906F905F904F900895CF9310927F
:102590005E0410925D0410925C0460915804C1E0E6
:1025A0006C2780912D010E94FD15C0935B04CF9193
:1025B00008956091580480912D010E94FD1560E0FE
:1025C00080912B010E94FD1510925B04089580916B
:1025D0005104811105C081E080935104109253048D
:1025E000089580915B048111FCCF0895BF92CF9232
:1025F000DF92EF92FF920F931F93CF93DF93F82E0A
:10260000E92ED62E8BE1861708F486C00E94F112BF
:10261000C3E0CD0D6C2F8FEF9FEF0E941011AC2FF8
:10262000B0E044E0B595A7954A95E1F7AF53BD4FAB
:102630002C9120933601CF70EC2FF0E0EF53FD4F3B
:1026400020812093370106E311E0BF2CCF2DDE2D32
:102650000E5F1F4F2C2F2B192D15D8F47E01C9901A
:102660006C2D0E941011AC2DB0E034E0B595A7950B
:102670003A95E1F7AF53BD4F2C91D8012C93D70178
:10268000EC91EF70F0E0EF53FD4F2081F8012183D2
:10269000DFCF61E06D0D660F80959095E62FF0E03D
:1026A000EA5CFE4FDC0114E0B695A7951A95E1F7B8
:1026B000AF70BB27AF53BD4F2C912083E1E0E60FF5
:1026C000F0E0EA5CFE4FDC01AF70BB27AF53BD4FBB
:1026D0002C912083E2E0E60FF0E0EA5CFE4FDC01A3
:1026E000AB2FBB27A295AF70AF53BD4F2C9120836A
:1026F000A3E0A60FB0E0AA5CBE4FE92FFF27EF7062
:10270000FF27EF53FD4F80818C93645F60935F04DC
:102710000E94C61281E001C080E0DF91CF911F913D
:102720000F91FF90EF90DF90CF90BF900895FB0145
:10273000209152042223C9F020912E04235030818D
:10274000231708F42083408150E061E374E00E9485
:10275000871C1092520460912E0480E394E00E9442
:102760002E1121E0883B904F09F020E0822F089540
:102770001F920F920FB60F9211242F933F934F93F6
:102780005F936F937F938F939F93AF93BF93EF93D9
:10279000FF9380915104882321F080915B0488236A
:1027A00071F180915B048823C9F080915C0491E011
:1027B000980F90935C04811111C0E0915E048091A8
:1027C0005F04E81718F10E94D91280915904909182
:1027D0005A04019690935A048093590480915C04A2
:1027E000883010F010925C0480915104882379F1B4
:1027F00080915B0481112BC00E94521128C08091EE
:102800002C010E94331680935704CBCFF0E0E25D99
:10281000FE4F608120915D0481E0820F80935D0412
:1028200081E090E001C0880F2A95EAF76823809143
:102830002B010E94FD1580915D04863078F2109284
:102840005D0480915E048F5F80935E04C7CFFF912B
:10285000EF91BF91AF919F918F917F916F915F9118
:102860004F913F912F910F900FBE0F901F90189591
:102870001F920F920FB60F9211242F933F938F93B5
:102880009F93AF93BF938091610490916204A09154
:102890006304B09164043091600423E0230F2D376A
:1028A00020F40196A11DB11D05C026E8230F029654
:1028B000A11DB11D20936004809361049093620474
:1028C000A0936304B09364048091650490916604BE
:1028D000A0916704B09168040196A11DB11D809379
:1028E000650490936604A0936704B0936804BF9155
:1028F000AF919F918F913F912F910F900FBE0F90AD
:102900001F9018952FB7F89460916104709162043C
:1029100080916304909164042FBF08953FB7F894A9
:102920008091650490916604A0916704B091680459
:1029300026B5A89B05C02F3F19F00196A11DB11D1A
:102940003FBF6627782F892F9A2F620F711D811D37
:10295000911D42E0660F771F881F991F4A95D1F796
:102960000895CF92DF92EF92FF92CF93DF936B01A6
:102970007C010E948E14EB01C114D104E104F10426
:1029800089F00E94E9190E948E146C1B7D0B683E31
:10299000734090F381E0C81AD108E108F108C851EA
:1029A000DC4FEACFDF91CF91FF90EF90DF90CF9097
:1029B00008958230910538F0880F991F880F991F6C
:1029C00005970197F1F70895789484B5826084BDE6
:1029D00084B5816084BD85B5826085BD85B5816023
:1029E00085BDEEE6F0E0808181608083E1E8F0E083
:1029F0001082808182608083808181608083E0E8B2
:102A0000F0E0808181608083E1EBF0E08081846090
:102A10008083E0EBF0E0808181608083EAE7F0E092
:102A200080818460808380818260808380818160F6
:102A300080838081806880831092C10008958E30E9
:102A400008F08E5087702091720190E4299F9001C8
:102A50001124822B80937C0080917A008064809383
:102A60007A0080917A0086FDFCCF809178002091D9
:102A7000790090E0922B08951F93CF93DF93182F46
:102A8000EB0161E00E94C415209711F460E004C0DE
:102A9000CF3FD10539F461E0812FDF91CF911F91B4
:102AA0000C94FD15E12FF0E0E550FE4FE491E3308A
:102AB000F9F048F4E130B9F0E230A1F584B5806274
:102AC00084BDC8BD34C0E730E9F0E83019F1E43026
:102AD00049F580918000806280938000D0938B00C4
:102AE000C0938A0024C084B5806884BDC7BD1FC060
:102AF00080918000806880938000D0938900C0938B
:102B0000880015C08091B00080688093B000C093A9
:102B1000B3000DC08091B00080628093B000C0937C
:102B2000B40005C0C038D1050CF0B5CFAFCFDF91F0
:102B3000CF911F910895833081F028F4813099F06E
:102B40008230A1F008958730A9F08830B9F0843040
:102B5000D1F4809180008F7D03C0809180008F77B9
:102B600080938000089584B58F7702C084B58F7DEF
:102B700084BD08958091B0008F7703C08091B0002C
:102B80008F7D8093B0000895CF93DF9390E0FC0198
:102B9000E15FFD4F2491FC01ED5DFD4F84918823A1
:102BA00049F190E0880F991FFC01E55BFD4FA5916D
:102BB000B4918F5B9D4FFC01C591D4919FB761117A
:102BC00008C0F8948C91209582238C93888182236D
:102BD0000AC0623051F4F8948C91322F30958323DF
:102BE0008C938881822B888304C0F8948C91822BEB
:102BF0008C939FBFDF91CF9108950F931F93CF9335
:102C0000DF931F92CDB7DEB7282F30E0F901E550F2
:102C1000FE4F8491F901E15FFD4F1491F901ED5DE3
:102C2000FD4F04910023C9F0882321F069830E949D
:102C30009B156981E02FF0E0EE0FFF1FEF5BFD4F6A
:102C4000A591B4919FB7F8948C91611103C0109530
:102C5000812301C0812B8C939FBF0F90DF91CF9177
:102C60001F910F910895CF93DF93282F30E0F90142
:102C7000E550FE4F8491F901E15FFD4FD491F901D8
:102C8000ED5DFD4FC491CC2391F081110E949B1505
:102C9000EC2FF0E0EE0FFF1FE95CFD4FA591B49122
:102CA0002C912D2381E090E021F480E002C080E0AF
:102CB00090E0DF91CF910895FC01818D228D90E00D
:102CC000805C9F4F821B91098F7399270895FC01A7
:102CD000918D828D981731F0828DE80FF11D858DD1
:102CE00090E008958FEF9FEF0895FC01918D828D04
:102CF000981761F0828DDF01A80FB11D5D968C9150
:102D0000928D9F5F9F73928F90E008958FEF9FEF5A
:102D1000089589EF97E1892B49F080E090E0892BB5
:102D200029F00E94F91781110C9400000895FC010C
:102D3000848DDF01A80FB11DA35ABF4F2C91848D44
:102D400090E001968F739927848FA689B7892C9379
:102D5000A089B1898C9180648C93938D848D981314
:102D600006C00288F389E02D80818F7D80830895DD
:102D7000CF93DF93EC01888D8823C9F0EA89FB8922
:102D8000808185FD05C0A889B9898C9186FD0FC019
:102D90000FB607FCF5CF808185FFF2CFA889B989EE
:102DA0008C9185FFEDCFCE010E949716E7CFDF9182
:102DB000CF910895CF92DF92FF920F931F93CF93FD
:102DC000DF931F92CDB7DEB76C0181E0D601589634
:102DD0008C9358975B969C915B975C968C915C97D3
:102DE000981307C05096ED91FC915197808185FD15
:102DF0002EC0F601038D10E00F5F1F4F0F731127D8
:102E0000F02EF601848DF81211C00FB607FCF9CF31
:102E1000D6015096ED91FC915197808185FFF1CFBD
:102E2000C60169830E9497166981EBCF838DE80FF5
:102E3000F11DE35AFF4F6083D6015B960C935B97BD
:102E40005296ED91FC915397808180620CC0D6011F
:102E50005696ED91FC91579760835096ED91FC91B9
:102E6000519780818064808381E090E00F90DF91B2
:102E7000CF911F910F91FF90DF90CF900895BF9257
:102E8000CF92DF92EF92FF92CF93DF93EC016A0132
:102E90007B01B22EE889F98982E08083411581EEB9
:102EA000580761057105A1F060E079E08DE390E0DD
:102EB000A70196010E94B01B215031094109510917
:102EC0005695479537952795211580E1380798F055
:102ED000E889F989108260E874E88EE190E0A70142
:102EE00096010E94B01B21503109410951095695A4
:102EF000479537952795EC85FD853083EE85FF85D1
:102F00002083188EEC89FD89B082EA89FB89808153
:102F100080618083EA89FB89808188608083EA8977
:102F2000FB89808180688083EA89FB8980818F7D2D
:102F30008083DF91CF91FF90EF90DF90CF90BF9093
:102F400008951F920F920FB60F9211242F938F9313
:102F50009F93EF93FF93E0917904F0917A0480813D
:102F6000E0917F04F091800482FD12C090818091F5
:102F700082048F5F8F7320918304821751F0E09158
:102F80008204F0E0E759FB4F958F8093820401C0E3
:102F90008081FF91EF919F918F912F910F900FBEA4
:102FA0000F901F9018951F920F920FB60F92112439
:102FB0002F933F934F935F936F937F938F939F9341
:102FC000AF93BF93EF93FF9389E694E00E94971627
:102FD000FF91EF91BF91AF919F918F917F916F91F1
:102FE0005F914F913F912F910F900FBE0F901F90C7
:102FF000189589E694E00E945C1621E0892B09F47B
:1030000020E0822F089510926C0410926B0488EED9
:1030100093E0A0E0B0E080936D0490936E04A093E1
:103020006F04B093700485ED92E090936A048093EE
:10303000690485EC90E0909376048093750484ECA9
:1030400090E0909378048093770480EC90E09093E4
:103050007A048093790481EC90E090937C048093CF
:103060007B0482EC90E090937E0480937D0486EC58
:1030700090E09093800480937F04109282041092D9
:10308000830410928404109285040895CF92DF92F5
:10309000EF92FF920F931F93CF93DF937C016A010E
:1030A000EB0100E010E00C151D0571F06991D701EE
:1030B000ED91FC910190F081E02DC7010995892BDC
:1030C00019F00F5F1F4FEFCFC801DF91CF911F9114
:1030D0000F91FF90EF90DF90CF90089561157105EB
:1030E00081F0DB010D900020E9F7AD01415051095D
:1030F000461B570BDC01ED91FC910280F381E02D22
:10310000099480E090E00895EF92FF920F931F934F
:10311000CF93DF938C017B01C0E0D0E0F701EC0F8F
:10312000FD1F6491662359F0F801A081B181ED91F2
:10313000FC91C8010995892B11F02196EFCFCE01A2
:10314000DF91CF911F910F91FF90EF900895DC01D7
:10315000ED91FC910190F081E02D099461EE72E017
:103160000C946E180F931F93CF93DF93EC010E9482
:1031700084188C01CE010E94AE18800F911FDF9140
:10318000CF911F910F9108958F929F92AF92BF920E
:10319000CF92DF92EF92FF920F931F93CF93DF9323
:1031A000CDB7DEB7A1970FB6F894DEBF0FBECDBF87
:1031B0007C01C42EE52FCB01D22E19A221E02D15C2
:1031C00010F02AE0D22E8E010F5D1F4F8D2C912C16
:1031D000A12CB12C6C2D7E2FA50194010E94B01B57
:1031E0008C2DD29E80191124015011098A3014F4BB
:1031F000805D01C0895CF80180832115310541059E
:10320000510521F0C22EE32FCA01E4CFB801C70156
:103210000E946E18A1960FB6F894DEBF0FBECDBF08
:10322000DF91CF911F910F91FF90EF90DF90CF90A2
:10323000BF90AF909F908F900895CF92DF92EF92C2
:10324000FF920F931F93CF93DF93EC016A017B01F1
:103250002115310579F4E881F9810190F081E02DA3
:10326000642FDF91CF911F910F91FF90EF90DF902E
:10327000CF9009942A303105E9F477FF1AC06DE246
:103280000E94A7188C0144275527BA014C195D09E3
:103290006E097F092AE0CE010E94C418800F911F99
:1032A000DF91CF911F910F91FF90EF90DF90CF9022
:1032B00008952AE0B701A601CE01DF91CF911F91B9
:1032C0000F91FF90EF90DF90CF900C94C4189A016B
:1032D000AB01662757FD6095762F0C941D190F934F
:1032E0001F93CF93DF93EC019A01AB01662757FD43
:1032F0006095762F0E941D198C01CE010E94AE1898
:10330000800F911FDF91CF911F910F91089521158B
:10331000310541F4DC01ED91FC910190F081E02D4B
:10332000642F09940C94C4180F931F93CF93DF93C9
:10333000EC019A01462F50E060E070E00E9487198E
:103340008C01CE010E94AE18800F911FDF91CF91AA
:103350001F910F910895611571058105910511F077
:103360000C94791C0895CF93DF9300D000D0CDB793
:10337000DEB79B01AC01611571058105910569F00E
:1033800069833A834B835C830E94741C29813A8150
:103390004B815C810E94D21B03C060E070E0CB01D6
:1033A0000F900F900F900F90DF91CF9108950E9492
:1033B000821C08950E94E4140E94D9190E940509F4
:1033C000C9E8D6E10E944A082097E1F30E948916D5
:1033D000F9CF0895D9D008F481E008950CD00FC139
:1033E00007D140F0FED030F021F45F3F19F0F0C07B
:1033F000511139C1F3C014D198F39923C9F355235E
:10340000B1F3951B550BBB27AA27621773078407D7
:1034100038F09F5F5F4F220F331F441FAA1FA9F38D
:1034200033D00E2E3AF0E0E830D091505040E6957F
:10343000001CCAF729D0FE2F27D0660F771F881FE0
:10344000BB1F261737074807AB07B0E809F0BB0BCF
:10345000802DBF01FF2793585F4F2AF09E3F5105F3
:1034600068F0B6C000C15F3FECF3983EDCF3869590
:1034700077956795B795F7959F5FC9F7880F911D69
:103480009695879597F90895E1E0660F771F881F55
:10349000BB1F621773078407BA0720F0621B730B08
:1034A000840BBA0BEE1F88F7E095089504D068945A
:1034B000B111D9C00895BCD088F09F5790F0B92FB2
:1034C0009927B751A0F0D1F0660F771F881F991F79
:1034D0001AF0BA95C9F712C0B13081F0C3D0B1E08B
:1034E0000895C0C0672F782F8827B85F39F0B93F9B
:1034F000CCF3869577956795B395D9F73EF490957B
:103500008095709561957F4F8F4F9F4F0895E894F8
:1035100009C097FB3EF490958095709561957F4F1B
:103520008F4F9F4F9923A9F0F92F96E9BB279395C9
:10353000F695879577956795B795F111F8CFFAF4D9
:10354000BB0F11F460FF1BC06F5F7F4F8F4F9F4F0A
:1035500016C0882311F096E911C0772321F09EE868
:10356000872F762F05C0662371F096E8862F70E0CE
:1035700060E02AF09A95660F771F881FDAF7880FA8
:103580009695879597F90895990F0008550FAA0BFE
:10359000E0E8FEEF16161706E807F907C0F0121666
:1035A0001306E407F50798F0621B730B840B950B69
:1035B00039F40A2661F0232B242B252B21F40895BE
:1035C0000A2609F4A140A6958FEF811D811D08955B
:1035D00097F99F6780E870E060E008959FEF80ECC6
:1035E000089500240A941616170618060906089569
:1035F00000240A9412161306140605060895092ECF
:103600000394000C11F4882352F0BB0F40F4BF2B3D
:1036100011F460FF04C06F5F7F4F8F4F9F4F08957D
:1036200057FD9058440F551F59F05F3F71F0479573
:10363000880F97FB991F61F09F3F79F08795089558
:10364000121613061406551FF2CF4695F1DF08C077
:10365000161617061806991FF1CF86957105610594
:1036600008940895E894BB2766277727CB0197F93C
:1036700008950BD0C4CFB5DF28F0BADF18F095233A
:1036800009F0A6CFABCF1124EECFCADFA0F3959FF0
:10369000D1F3950F50E0551F629FF001729FBB2739
:1036A000F00DB11D639FAA27F00DB11DAA1F649FE5
:1036B0006627B00DA11D661F829F2227B00DA11D98
:1036C000621F739FB00DA11D621F839FA00D611D1E
:1036D000221F749F3327A00D611D231F849F600D3F
:1036E000211D822F762F6A2F11249F5750408AF078
:1036F000E1F088234AF0EE0FFF1FBB1F661F771F04
:10370000881F91505040A9F79E3F510570F060CF3F
:10371000AACF5F3FECF3983EDCF3869577956795EB
:10372000B795F795E7959F5FC1F7FE2B880F911D21
:103730009695879597F9089597FB072E16F40094B0
:1037400007D077FD09D00E94FC1B07FC05D03EF492
:10375000909581959F4F0895709561957F4F08953D
:10376000A1E21A2EAA1BBB1BFD010DC0AA1FBB1F85
:10377000EE1FFF1FA217B307E407F50720F0A21BF7
:10378000B30BE40BF50B661F771F881F991F1A9464
:1037900069F760957095809590959B01AC01BD018E
:1037A000CF010895052E97FB1EF400940E94E91B9B
:1037B00057FD07D00E94B01B07FC03D04EF40C94B9
:1037C000E91B50954095309521953F4F4F4F5F4FE6
:1037D000089590958095709561957F4F8F4F9F4F7D
:1037E00008950E94161CA59F900DB49F900DA49F54
:1037F000800D911D11240895AA1BBB1B51E107C028
:10380000AA1FBB1FA617B70710F0A61BB70B881F70
:10381000991F5A95A9F780959095BC01CD010895FF
:10382000EE0FFF1F0590F491E02D0994A29FB001C7
:10383000B39FC001A39F700D811D1124911DB29FE4
:10384000700D811D1124911D08958F929F92AF924A
:10385000BF92CF92DF92EF92FF92CF93DF93EC0172
:10386000688179818A819B81611571058105910546
:1038700021F464E279ED8BE597E02DE133EF41E04F
:1038800050E00E94D21B49015A019B01AC01A7EAFA
:10389000B1E40E94F11B6B017C01ACEEB4EFA50119
:1038A00094010E94A91CC60ED71EE81EF91EF7FE41
:1038B00006C081E0C81AD108E10880E8F80AC88289
:1038C000D982EA82FB82C701B6019F77DF91CF914F
:1038D000FF90EF90DF90CF90BF90AF909F908F9030
:1038E00008950E94251C089586E091E00E94251C01
:1038F00008956093060170930701809308019093E7
:103900000901089581E090E0F8940C94AE1CFB014D
:10391000DC0102C001900D9241505040D8F708954B
:10392000F999FECF92BD81BDF89A992780B5089587
:10393000262FF999FECF1FBA92BD81BD20BD0FB6CB
:10394000F894FA9AF99A0FBE01960895B7FF0C946D
:10395000F11B0E94F11B821B930B0895F894FFCF7B
:103960000000060580000100000009120912001F76
:103970001F007F9698007F9698007F9698007F960C
:1039800098007F9698007F9698001E0C0B0A2A2AB2
:103990002A2A2A2A382C000000000000000000001B
:1039A0000000000000000000000000000000000017
:1039B0000000000000000000000000000000000007
:1039C00000000000000000000000000000000000F7
:1039D0000000012020202020202020202020200066
:1039E0000001000800400000010004050D00000077
:1039F00000100AE309B809C009D309E20900000070
:103A000000A80C4618110DA60CA70CD71900000031
:103A100000A80C4618EA0ECE0DE20DCC0E05373785
:103A200005005EBCE2613FDD83C29C7E20A3FD1FDA
:103A3000419DC3217FFCA2401E5F01E3BD3E608229
:103A4000DC237D9FC1421CFEA0E1BF5D0380DE3C04
:103A500062BEE0025CDF81633D7C22C09E1D43A10B
:103A6000FF4618FAA427799BC584DA3866E5BB5966
:103A700007DB856739BAE406581947A5FB7826C4E1
:103A80009A653BD987045AB8E6A7F91B45C6987AC8
:103A900024F8A6441A99C7257B3A6486D85B05E7C3
:103AA000B98CD2306EEDB3510F4E10F2AC2F719332
:103AB000CD114FADF3702ECC92D38D6F31B2EC0E91
:103AC00050AFF1134DCE90722C6D33D18F0C52B09C
:103AD000EE326C8ED0530DEFB1F0AE4C1291CF2D73
:103AE00073CA947628ABF517490856B4EA6937D5F6
:103AF0008B5709EBB536688AD495CB2977F4AA4859
:103B000016E9B7550B88D6346A2B7597C94A14F64F
:103B1000A8742AC896154BA9F7B6E80A54D7896B3A
:103B2000350D0E131516191A1C232526292A2C3299
:103B30003400000000DA1646185C1675166716B8D1
:103B4000160D0A006E616E00696E66006F76660083
:023B50002E0045
:107800000C94343C0C94513C0C94513C0C94513CE1
:107810000C94513C0C94513C0C94513C0C94513CB4
:107820000C94513C0C94513C0C94513C0C94513CA4
:107830000C94513C0C94513C0C94513C0C94513C94
:107840000C94513C0C94513C0C94513C0C94513C84
:107850000C94513C0C94513C0C94513C0C94513C74
:107860000C94513C0C94513C11241FBECFEFD8E036
:10787000DEBFCDBF11E0A0E0B1E0ECE9FFE702C060
:1078800005900D92A230B107D9F712E0A2E0B1E065
:1078900001C01D92AD30B107E1F70E942D3D0C945F
:1078A000CC3F0C94003C982F959595959595959582
:1078B000905D8F708A307CF0282F295A8091C0000B
:1078C00085FFFCCF9093C6008091C00085FFFCCF60
:1078D0002093C6000895282F205DF0CF982F809127
:1078E000C00085FFFCCF9093C6000895EF92FF92F1
:1078F0000F931F93EE24FF2487018091C00087FD22
:1079000017C00894E11CF11C011D111D81E4E8164B
:1079100082E4F8068FE0080780E0180770F3E09132
:107920000401F091050109958091C00087FFE9CF1E
:107930008091C6001F910F91FF90EF9008950E94D3
:10794000763C982F8091C00085FFFCCF9093C600B5
:1079500091362CF490330CF09053892F089597555D
:10796000892F08951F930E949F3C182F0E949F3CCF
:107970001295107F810F1F9108951F93182F882350
:1079800021F00E94763C1150E1F71F9108951F935A
:10799000182F0E94763C803249F0809103018F5F5E
:1079A000809303018530C1F01F9108958091C0003C
:1079B00085FFFCCF84E18093C6008091C00085FFE5
:1079C000FCCF1093C6008091C00085FFFCCF80E102
:1079D0008093C6001F910895E0910401F091050184
:1079E00009951F9108950E94763C803241F0809164
:1079F00003018F5F80930301853081F008958091AA
:107A0000C00085FFFCCF84E18093C6008091C00058
:107A100085FFFCCF80E18093C6000895E0910401CA
:107A2000F09105010995089540E951E08823A1F0FE
:107A30002D9A28EE33E0FA013197F1F721503040CA
:107A4000D1F72D9828EE33E0FA013197F1F7215064
:107A50003040D1F7815061F708953F924F925F9285
:107A60006F927F928F929F92AF92BF92CF92DF924E
:107A7000EF92FF920F931F93CF93DF93000080E16B
:107A80008093C4001092C50088E18093C10086E015
:107A90008093C2005098589A259A81E00E94143D24
:107AA00024E1F22E9EE1E92E85E9D82E0FE0C02ECA
:107AB00010E1B12EAA24A394B1E49B2EA6E58A2E50
:107AC000F2E57F2EE0E26E2E79E4572E63E5462E36
:107AD00050E5352E0E94763C8033B1F18133B9F107
:107AE000803409F46FC0813409F476C0823409F41B
:107AF00085C0853409F488C0803531F1823521F1A3
:107B0000813511F1853509F485C0863509F48DC0BC
:107B1000843609F496C0843709F403C1853709F423
:107B200072C1863709F466C0809103018F5F80932C
:107B30000301853079F6E0910401F0910501099582
:107B40000E94763C803351F60E94F33CC3CF0E94E2
:107B5000763C803249F78091C00085FFFCCFF092DF
:107B6000C6008091C00085FFFCCF9092C600809136
:107B7000C00085FFFCCF8092C6008091C00085FFC9
:107B8000FCCF7092C6008091C00085FFFCCF609250
:107B9000C6008091C00085FFFCCF5092C600809146
:107BA000C00085FFFCCF4092C6008091C00085FFD9
:107BB000FCCF3092C6008091C00085FFFCCFB09210
:107BC000C60088CF0E94763C863808F4BDCF0E945C
:107BD000763C0E94F33C7ECF0E94763C803809F4CC
:107BE0009CC0813809F40BC1823809F43CC1883942
:107BF00009F48FC080E00E94C73C6CCF84E10E94F2
:107C0000BD3C0E94F33C66CF85E00E94BD3C0E94D3
:107C1000F33C60CF0E94763C809306010E94763C44
:107C2000809307010E94F33C55CF0E94763C80333D
:107C300009F41DC183E00E94BD3C80E00E94C73C66
:107C400049CF0E94763C809309020E94763C809343
:107C5000080280910C028E7F80930C020E94763C79
:107C6000853409F415C18091080290910902892B8D
:107C700089F000E010E00E94763CF801E85FFE4FDA
:107C800080830F5F1F4F80910802909109020817AF
:107C9000190788F30E94763C803209F045CF809125
:107CA0000C0280FF01C16091060170910701660F0F
:107CB000771F7093070160930601A0910802B091AD
:107CC00009021097C9F0E8E0F1E09B01AD014E0F09
:107CD0005F1FF999FECF32BD21BD819180BDFA9A17
:107CE000F99A2F5F3F4FE417F50799F76A0F7B1F4B
:107CF00070930701609306018091C00085FFFCCF5F
:107D0000F092C6008091C00085FFFCCFB092C60003
:107D1000E1CE83E00E94C73CDDCE82E00E94C73CFA
:107D2000D9CE0E94763C809309020E94763C8093D3
:107D300008028091060190910701880F991F909386
:107D40000701809306010E94763C853409F4A6C0A1
:107D500080910C028E7F80930C020E94763C8032D0
:107D600009F0B8CE8091C00085FFFCCFF092C6002C
:107D7000609108027091090261157105B9F140E046
:107D800050E080910C02A82FA170B82FB27011C0E2
:107D9000BB2309F45CC0E0910601F0910701319624
:107DA000F0930701E09306014F5F5F4F46175707B7
:107DB000E8F4AA2369F3F999FECF209106013091E6
:107DC000070132BD21BDF89A90B58091C00085FFB2
:107DD000FCCF9093C6002F5F3F4F30930701209355
:107DE00006014F5F5F4F4617570718F38091C00099
:107DF00085FDE5CE8091C00085FFF8CFE0CE81E023
:107E00000E94C73C67CE0E94763C803209F08CCE3F
:107E10008091C00085FFFCCFF092C6008091C00029
:107E200085FFFCCFE092C6008091C00085FFFCCFAB
:107E3000D092C6008091C00085FFFCCFC092C600E2
:107E40008091C00085FFFCCFB092C60043CEE09188
:107E50000601F091070194918091C00085FFFCCF4D
:107E60009093C6009CCF80E10E94C73C33CE0E9415
:107E7000763C0E94763C182F0E94763C112309F430
:107E800083C0113009F484C08FE00E94C73C22CE29
:107E900080910C02816080930C02E5CE80910C02EF
:107EA000816080930C0259CF809107018823880F4D
:107EB000880B8A2180930B02809106019091070123
:107EC000880F991F90930701809306018091080203
:107ED00080FF09C080910802909109020196909359
:107EE000090280930802F894F999FECF1127E091D6
:107EF0000601F0910701C8E0D1E08091080290915D
:107F00000902103091F40091570001700130D9F34B
:107F100003E000935700E89500915700017001308D
:107F2000D9F301E100935700E89509901990009169
:107F3000570001700130D9F301E000935700E89534
:107F40001395103498F011270091570001700130FB
:107F5000D9F305E000935700E895009157000170B0
:107F60000130D9F301E100935700E895329602976A
:107F700009F0C7CF103011F00296E5CF112480919F
:107F8000C00085FFB9CEBCCE8EE10E94C73CA2CD19
:0C7F900085E90E94C73C9ECDF894FFCF0D
:027F9C00800063
:040000030000780081
:00000001FF
